{
  "_format": "hh-sol-artifact-1",
  "contractName": "GamerhubManager",
  "sourceName": "contracts/GamerhubManager.sol",
  "abi": [
    {
      "inputs": [],
      "stateMutability": "nonpayable",
      "type": "constructor"
    },
    {
      "anonymous": false,
      "inputs": [
        {
          "indexed": true,
          "internalType": "address",
          "name": "user",
          "type": "address"
        },
        {
          "indexed": false,
          "internalType": "uint256",
          "name": "package",
          "type": "uint256"
        },
        {
          "indexed": false,
          "internalType": "uint256",
          "name": "start",
          "type": "uint256"
        },
        {
          "indexed": false,
          "internalType": "uint256",
          "name": "end",
          "type": "uint256"
        }
      ],
      "name": "subscribed",
      "type": "event"
    },
    {
      "anonymous": false,
      "inputs": [
        {
          "indexed": false,
          "internalType": "address",
          "name": "user",
          "type": "address"
        },
        {
          "indexed": false,
          "internalType": "uint256",
          "name": "amount",
          "type": "uint256"
        }
      ],
      "name": "withdrawal",
      "type": "event"
    },
    {
      "inputs": [],
      "name": "balance",
      "outputs": [
        {
          "internalType": "uint256",
          "name": "",
          "type": "uint256"
        }
      ],
      "stateMutability": "view",
      "type": "function"
    },
    {
      "inputs": [
        {
          "internalType": "uint256",
          "name": "_package",
          "type": "uint256"
        }
      ],
      "name": "getPackage",
      "outputs": [
        {
          "internalType": "uint256",
          "name": "duration",
          "type": "uint256"
        },
        {
          "internalType": "uint256",
          "name": "amount",
          "type": "uint256"
        }
      ],
      "stateMutability": "view",
      "type": "function"
    },
    {
      "inputs": [],
      "name": "owner",
      "outputs": [
        {
          "internalType": "address",
          "name": "",
          "type": "address"
        }
      ],
      "stateMutability": "view",
      "type": "function"
    },
    {
      "inputs": [
        {
          "internalType": "uint256",
          "name": "",
          "type": "uint256"
        }
      ],
      "name": "packages",
      "outputs": [
        {
          "internalType": "uint256",
          "name": "package",
          "type": "uint256"
        },
        {
          "internalType": "uint256",
          "name": "duration",
          "type": "uint256"
        },
        {
          "internalType": "uint256",
          "name": "amount",
          "type": "uint256"
        }
      ],
      "stateMutability": "view",
      "type": "function"
    },
    {
      "inputs": [
        {
          "internalType": "uint256",
          "name": "_package",
          "type": "uint256"
        },
        {
          "internalType": "uint256",
          "name": "_duration",
          "type": "uint256"
        },
        {
          "internalType": "uint256",
          "name": "_amount",
          "type": "uint256"
        }
      ],
      "name": "setPackage",
      "outputs": [],
      "stateMutability": "nonpayable",
      "type": "function"
    },
    {
      "inputs": [
        {
          "internalType": "uint256",
          "name": "_package",
          "type": "uint256"
        },
        {
          "internalType": "uint256",
          "name": "_start",
          "type": "uint256"
        }
      ],
      "name": "subscribe",
      "outputs": [],
      "stateMutability": "payable",
      "type": "function"
    },
    {
      "inputs": [
        {
          "internalType": "address",
          "name": "",
          "type": "address"
        }
      ],
      "name": "subscriptions",
      "outputs": [
        {
          "internalType": "uint256",
          "name": "package",
          "type": "uint256"
        },
        {
          "internalType": "uint256",
          "name": "start",
          "type": "uint256"
        },
        {
          "internalType": "uint256",
          "name": "end",
          "type": "uint256"
        }
      ],
      "stateMutability": "view",
      "type": "function"
    },
    {
      "inputs": [
        {
          "internalType": "uint256",
          "name": "_amount",
          "type": "uint256"
        }
      ],
      "name": "withdraw",
      "outputs": [],
      "stateMutability": "nonpayable",
      "type": "function"
    }
  ],
  "bytecode": "0x608060405234801561001057600080fd5b50600080546001600160a01b031916331790556106be806100326000396000f3fe60806040526004361061007b5760003560e01c8063b69ef8a81161004e578063b69ef8a814610112578063b99dfe1814610136578063c216212a14610183578063f046395a146101d957600080fd5b80632e1a7d4d1461008057806382447134146100a257806384370813146100c25780638da5cb5b146100d5575b600080fd5b34801561008c57600080fd5b506100a061009b3660046105af565b610215565b005b3480156100ae57600080fd5b506100a06100bd3660046105c8565b610395565b6100a06100d03660046105f4565b61045d565b3480156100e157600080fd5b506000546100f5906001600160a01b031681565b6040516001600160a01b0390911681526020015b60405180910390f35b34801561011e57600080fd5b5061012860015481565b604051908152602001610109565b34801561014257600080fd5b5061016e6101513660046105af565b600090815260026020819052604090912060018101549101549091565b60408051928352602083019190915201610109565b34801561018f57600080fd5b506101be61019e3660046105af565b600260208190526000918252604090912080546001820154919092015483565b60408051938452602084019290925290820152606001610109565b3480156101e557600080fd5b506101be6101f4366004610616565b60036020526000908152604090208054600182015460029092015490919083565b6000546001600160a01b031633146102645760405162461bcd60e51b815260206004820152600d60248201526c1058d8d95cdcc819195b9a5959609a1b60448201526064015b60405180910390fd5b478111156102b45760405162461bcd60e51b815260206004820152601960248201527f5769746864726177616c206c696d697420657863656564656400000000000000604482015260640161025b565b80600160008282546102c6919061065c565b9091555050604051600090339083908381818185875af1925050503d806000811461030d576040519150601f19603f3d011682016040523d82523d6000602084013e610312565b606091505b50509050806103585760405162461bcd60e51b81526020600482015260126024820152712330b4b632b2103a379039b2b7321021272160711b604482015260640161025b565b60408051338152602081018490527f5a6b26bafd3957bf06ea3b4915f51221953ed272573c779820e6e39df3e646cf910160405180910390a15050565b6000546001600160a01b031633146103df5760405162461bcd60e51b815260206004820152600d60248201526c1058d8d95cdcc819195b9a5959609a1b604482015260640161025b565b600082116104225760405162461bcd60e51b815260206004820152601060248201526f24b73b30b634b210323ab930ba34b7b760811b604482015260640161025b565b604080516060810182528481526020808201948552818301938452600095865260029081905291909420935184559151600184015551910155565b6000828152600260208190526040909120015434146104b45760405162461bcd60e51b8152602060048201526013602482015272125b9d985b1a5908185b5bdd5b9d081c185a59606a1b604482015260640161025b565b600081116104f95760405162461bcd60e51b8152602060048201526012602482015271496e76616c6964207374617274206461746560701b604482015260640161025b565b346001600082825461050b9190610675565b909155505060008281526002602052604081206001015461052c9083610675565b60408051606080820183528682526020808301878152838501868152336000818152600385528790209551865591516001860155516002909401939093558351888152908101879052928301849052929350917ff627a3eaadc6c9d2386af4796a2aa425166c96a3e7685fa709d9608f2abab1eb910160405180910390a2505050565b6000602082840312156105c157600080fd5b5035919050565b6000806000606084860312156105dd57600080fd5b505081359360208301359350604090920135919050565b6000806040838503121561060757600080fd5b50508035926020909101359150565b60006020828403121561062857600080fd5b81356001600160a01b038116811461063f57600080fd5b9392505050565b634e487b7160e01b600052601160045260246000fd5b8181038181111561066f5761066f610646565b92915050565b8082018082111561066f5761066f61064656fea2646970667358221220175dbc8a07c999f0a4a470597c4e0926f63df018165618a6fb1c7e541b838a0764736f6c63430008120033",
  "linkReferences": {},
  "deployedLinkReferences": {}
}