{
  "_format": "hh-sol-artifact-1",
  "contractName": "Payout",
  "sourceName": "contracts/Payout.sol",
  "abi": [
    {
      "inputs": [],
      "stateMutability": "nonpayable",
      "type": "constructor"
    },
    {
      "anonymous": false,
      "inputs": [
        {
          "indexed": true,
          "internalType": "bytes32",
          "name": "id",
          "type": "bytes32"
        }
      ],
      "name": "ChainlinkCancelled",
      "type": "event"
    },
    {
      "anonymous": false,
      "inputs": [
        {
          "indexed": true,
          "internalType": "bytes32",
          "name": "id",
          "type": "bytes32"
        }
      ],
      "name": "ChainlinkFulfilled",
      "type": "event"
    },
    {
      "anonymous": false,
      "inputs": [
        {
          "indexed": true,
          "internalType": "bytes32",
          "name": "id",
          "type": "bytes32"
        }
      ],
      "name": "ChainlinkRequested",
      "type": "event"
    },
    {
      "anonymous": false,
      "inputs": [
        {
          "indexed": true,
          "internalType": "address",
          "name": "from",
          "type": "address"
        },
        {
          "indexed": true,
          "internalType": "address",
          "name": "to",
          "type": "address"
        }
      ],
      "name": "OwnershipTransferRequested",
      "type": "event"
    },
    {
      "anonymous": false,
      "inputs": [
        {
          "indexed": true,
          "internalType": "address",
          "name": "from",
          "type": "address"
        },
        {
          "indexed": true,
          "internalType": "address",
          "name": "to",
          "type": "address"
        }
      ],
      "name": "OwnershipTransferred",
      "type": "event"
    },
    {
      "anonymous": false,
      "inputs": [
        {
          "indexed": true,
          "internalType": "bytes32",
          "name": "requestId",
          "type": "bytes32"
        },
        {
          "indexed": false,
          "internalType": "uint256",
          "name": "volume",
          "type": "uint256"
        }
      ],
      "name": "RequestVolume",
      "type": "event"
    },
    {
      "inputs": [],
      "name": "acceptOwnership",
      "outputs": [],
      "stateMutability": "nonpayable",
      "type": "function"
    },
    {
      "inputs": [
        {
          "internalType": "bytes32",
          "name": "_requestId",
          "type": "bytes32"
        },
        {
          "internalType": "uint256",
          "name": "_volume",
          "type": "uint256"
        }
      ],
      "name": "fulfill",
      "outputs": [],
      "stateMutability": "nonpayable",
      "type": "function"
    },
    {
      "inputs": [],
      "name": "ghtAddress",
      "outputs": [
        {
          "internalType": "address",
          "name": "",
          "type": "address"
        }
      ],
      "stateMutability": "view",
      "type": "function"
    },
    {
      "inputs": [],
      "name": "owner",
      "outputs": [
        {
          "internalType": "address",
          "name": "",
          "type": "address"
        }
      ],
      "stateMutability": "view",
      "type": "function"
    },
    {
      "inputs": [
        {
          "internalType": "string",
          "name": "url",
          "type": "string"
        }
      ],
      "name": "requestVolumeData",
      "outputs": [
        {
          "internalType": "bytes32",
          "name": "requestId",
          "type": "bytes32"
        }
      ],
      "stateMutability": "nonpayable",
      "type": "function"
    },
    {
      "inputs": [
        {
          "internalType": "bytes32",
          "name": "",
          "type": "bytes32"
        }
      ],
      "name": "requests",
      "outputs": [
        {
          "internalType": "address",
          "name": "",
          "type": "address"
        }
      ],
      "stateMutability": "view",
      "type": "function"
    },
    {
      "inputs": [
        {
          "internalType": "address",
          "name": "_tokenAddress",
          "type": "address"
        }
      ],
      "name": "setAddress",
      "outputs": [],
      "stateMutability": "nonpayable",
      "type": "function"
    },
    {
      "inputs": [
        {
          "internalType": "address",
          "name": "to",
          "type": "address"
        }
      ],
      "name": "transferOwnership",
      "outputs": [],
      "stateMutability": "nonpayable",
      "type": "function"
    },
    {
      "inputs": [],
      "name": "volume",
      "outputs": [
        {
          "internalType": "uint256",
          "name": "",
          "type": "uint256"
        }
      ],
      "stateMutability": "view",
      "type": "function"
    },
    {
      "inputs": [],
      "name": "withdrawLink",
      "outputs": [],
      "stateMutability": "nonpayable",
      "type": "function"
    }
  ],
  "bytecode": "0x608060405260016004553480156200001657600080fd5b5033806000816200006e5760405162461bcd60e51b815260206004820152601860248201527f43616e6e6f7420736574206f776e657220746f207a65726f000000000000000060448201526064015b60405180910390fd5b600680546001600160a01b0319166001600160a01b0384811691909117909155811615620000a157620000a1816200013f565b505050620000c97384b9b910527ad5c03a9ca831909e21e236ea7b06620001eb60201b60201c565b600380546001600160a01b03191673cc79157eb46f5624204f47ab42b3906caa40eab71790557f6361393833363663633733313439353762386330313263373266303561656562600955600a6200012a670de0b6b3a764000060016200020d565b62000136919062000239565b600a556200025c565b336001600160a01b03821603620001995760405162461bcd60e51b815260206004820152601760248201527f43616e6e6f74207472616e7366657220746f2073656c66000000000000000000604482015260640162000065565b600780546001600160a01b0319166001600160a01b03838116918217909255600654604051919216907fed8889f560326eb138920d842192f0eb3dd22b4f139c87a2c57538e05bae127890600090a350565b600280546001600160a01b0319166001600160a01b0392909216919091179055565b80820281158282048414176200023357634e487b7160e01b600052601160045260246000fd5b92915050565b6000826200025757634e487b7160e01b600052601260045260246000fd5b500490565b6112f1806200026c6000396000f3fe608060405234801561001057600080fd5b506004361061009e5760003560e01c8063963074341161006657806396307434146101135780639d86698514610126578063c618a1e41461014f578063e30081a014610158578063f2fde38b1461016b57600080fd5b80634357855e146100a35780635f956d1a146100b857806379ba5097146100de5780638da5cb5b146100e65780638dc654a21461010b575b600080fd5b6100b66100b1366004610eed565b61017e565b005b6100cb6100c6366004610f25565b61030a565b6040519081526020015b60405180910390f35b6100b66103ff565b6006546001600160a01b03165b6040516001600160a01b0390911681526020016100d5565b6100b66104ad565b600b546100f3906001600160a01b031681565b6100f3610134366004610fd6565b600c602052600090815260409020546001600160a01b031681565b6100cb60085481565b6100b6610166366004610fef565b6105f1565b6100b6610179366004610fef565b61061b565b60008281526005602052604090205482906001600160a01b031633146101fc5760405162461bcd60e51b815260206004820152602860248201527f536f75726365206d75737420626520746865206f7261636c65206f6620746865604482015267081c995c5d595cdd60c21b60648201526084015b60405180910390fd5b60008181526005602052604080822080546001600160a01b03191690555182917f7cc135e0cebb02c3480ae5d74d377283180a2601f8f644edf7987b009316c63a91a2827f673b38182859a514d734bdfcb49d3a05c4a641dec9311d9894c9717bcb79af768360405161027191815260200190565b60405180910390a26008829055600b546000848152600c60205260409081902054905163a9059cbb60e01b81526001600160a01b0391821660048201526024810185905291169063a9059cbb906044016020604051808303816000875af11580156102e0573d6000803e3d6000fd5b505050506040513d601f19601f82011682018060405250810190610304919061101f565b50505050565b60008061032160095430634357855e60e01b61062c565b60408051808201909152600381526219d95d60ea1b602082015290915061034a90829085610651565b610398604051806040016040528060048152602001630e0c2e8d60e31b81525060405180604001604052806005815260200164746f50617960d81b815250836106519092919063ffffffff16565b60408051808201909152600581526474696d657360d81b6020820152670de0b6b3a7640000906103ca90839083610674565b60006103d883600a54610692565b6000818152600c6020526040902080546001600160a01b0319163317905595945050505050565b6007546001600160a01b031633146104525760405162461bcd60e51b815260206004820152601660248201527526bab9ba10313290383937b837b9b2b21037bbb732b960511b60448201526064016101f3565b600680546001600160a01b0319808216339081179093556007805490911690556040516001600160a01b03909116919082907f8be0079c531659141344cd1fd0a4f28419497f9722a3daafe3b4186f6b6457e090600090a350565b6104b56106b5565b60006104c96002546001600160a01b031690565b6040516370a0823160e01b81523060048201529091506001600160a01b0382169063a9059cbb90339083906370a0823190602401602060405180830381865afa15801561051a573d6000803e3d6000fd5b505050506040513d601f19601f8201168201806040525081019061053e9190611041565b6040516001600160e01b031960e085901b1681526001600160a01b03909216600483015260248201526044016020604051808303816000875af1158015610589573d6000803e3d6000fd5b505050506040513d601f19601f820116820180604052508101906105ad919061101f565b6105ee5760405162461bcd60e51b81526020600482015260126024820152712ab730b13632903a37903a3930b739b332b960711b60448201526064016101f3565b50565b6105f96106b5565b600b80546001600160a01b0319166001600160a01b0392909216919091179055565b6106236106b5565b6105ee8161070a565b610634610eb2565b61063c610eb2565b610648818686866107b4565b95945050505050565b608083015161066090836107fa565b608083015161066f90826107fa565b505050565b608083015161068390836107fa565b608083015161066f9082610811565b6003546000906106ac906001600160a01b03168484610875565b90505b92915050565b6006546001600160a01b031633146107085760405162461bcd60e51b815260206004820152601660248201527527b7363c9031b0b63630b1363290313c9037bbb732b960511b60448201526064016101f3565b565b336001600160a01b038216036107625760405162461bcd60e51b815260206004820152601760248201527f43616e6e6f74207472616e7366657220746f2073656c6600000000000000000060448201526064016101f3565b600780546001600160a01b0319166001600160a01b03838116918217909255600654604051919216907fed8889f560326eb138920d842192f0eb3dd22b4f139c87a2c57538e05bae127890600090a350565b6107bc610eb2565b6107cc8560800151610100610908565b50508284526001600160a01b03821660208501526001600160e01b031981166040850152835b949350505050565b610807826003835161096d565b61066f8282610a7c565b67ffffffffffffffff198112156108305761082c8282610aa3565b5050565b67ffffffffffffffff81131561084a5761082c8282610ae5565b6000811261085e5761082c8260008361096d565b61082c82600161087084600019611070565b61096d565b600454600090610886816001611097565b600455835160408086015160808701515191516000936320214ca360e11b936108be9386938493923092918a916001916024016110f0565b60408051601f198184030181529190526020810180516001600160e01b03166001600160e01b03199093169290921790915290506108fe86838684610b08565b9695505050505050565b604080518082019091526060815260006020820152610928602083611158565b1561095057610938602083611158565b61094390602061117a565b61094d9083611097565b91505b506020828101829052604080518085526000815290920101905290565b60178167ffffffffffffffff1611610992576103048360e0600585901b168317610c66565b60ff8167ffffffffffffffff16116109d0576109b9836018611fe0600586901b1617610c66565b506103048367ffffffffffffffff83166001610c8b565b61ffff8167ffffffffffffffff1611610a0f576109f8836019611fe0600586901b1617610c66565b506103048367ffffffffffffffff83166002610c8b565b63ffffffff8167ffffffffffffffff1611610a5057610a3983601a611fe0600586901b1617610c66565b506103048367ffffffffffffffff83166004610c8b565b610a6583601b611fe0600586901b1617610c66565b506103048367ffffffffffffffff83166008610c8b565b6040805180820190915260608152600060208201526106ac83846000015151848551610cb1565b610aae8260c3610c66565b5061082c82610abf83600019611070565b604051602001610ad191815260200190565b604051602081830303815290604052610d9b565b610af08260c2610c66565b5061082c8282604051602001610ad191815260200190565b6040516bffffffffffffffffffffffff193060601b1660208201526034810184905260009060540160408051808303601f1901815282825280516020918201206000818152600590925291812080546001600160a01b0319166001600160a01b038a1617905590925082917fb5e6e01e79f91267dc17b4e6314d5d4d03593d2ceee0fbb452b750bd70ea5af99190a2600254604051630200057560e51b81526001600160a01b0390911690634000aea090610bcb9088908790879060040161118d565b6020604051808303816000875af1158015610bea573d6000803e3d6000fd5b505050506040513d601f19601f82011682018060405250810190610c0e919061101f565b6107f25760405162461bcd60e51b815260206004820152602360248201527f756e61626c6520746f207472616e73666572416e6443616c6c20746f206f7261604482015262636c6560e81b60648201526084016101f3565b6040805180820190915260608152600060208201526106ac8384600001515184610da8565b6040805180820190915260608152600060208201526107f2848560000151518585610e03565b6040805180820190915260608152600060208201528251821115610cd457600080fd5b6020850151610ce38386611097565b1115610d1657610d1685610d0687602001518786610d019190611097565b610e84565b610d119060026111b4565b610e9b565b600080865180518760208301019350808887011115610d355787860182525b505050602084015b60208410610d755780518252610d54602083611097565b9150610d61602082611097565b9050610d6e60208561117a565b9350610d3d565b51815160001960208690036101000a019081169019919091161790525083949350505050565b610807826002835161096d565b60408051808201909152606081526000602082015283602001518310610ddd57610ddd8485602001516002610d1191906111b4565b8351805160208583010184815350808503610df9576001810182525b5093949350505050565b6040805180820190915260608152600060208201526020850151610e278584611097565b1115610e3b57610e3b85610d068685611097565b60006001610e4b846101006112af565b610e55919061117a565b9050855183868201018583198251161781525080518487011115610e795783860181525b509495945050505050565b600081831115610e955750816106af565b50919050565b8151610ea78383610908565b506103048382610a7c565b6040805160a0810182526000808252602080830182905282840182905260608084018390528451808601909552845283015290608082015290565b60008060408385031215610f0057600080fd5b50508035926020909101359150565b634e487b7160e01b600052604160045260246000fd5b600060208284031215610f3757600080fd5b813567ffffffffffffffff80821115610f4f57600080fd5b818401915084601f830112610f6357600080fd5b813581811115610f7557610f75610f0f565b604051601f8201601f19908116603f01168101908382118183101715610f9d57610f9d610f0f565b81604052828152876020848701011115610fb657600080fd5b826020860160208301376000928101602001929092525095945050505050565b600060208284031215610fe857600080fd5b5035919050565b60006020828403121561100157600080fd5b81356001600160a01b038116811461101857600080fd5b9392505050565b60006020828403121561103157600080fd5b8151801515811461101857600080fd5b60006020828403121561105357600080fd5b5051919050565b634e487b7160e01b600052601160045260246000fd5b81810360008312801583831316838312821617156110905761109061105a565b5092915050565b808201808211156106af576106af61105a565b6000815180845260005b818110156110d0576020818501810151868301820152016110b4565b506000602082860101526020601f19601f83011685010191505092915050565b6001600160a01b0389811682526020820189905260408201889052861660608201526001600160e01b03198516608082015260a0810184905260c0810183905261010060e08201819052600090611149838201856110aa565b9b9a5050505050505050505050565b60008261117557634e487b7160e01b600052601260045260246000fd5b500690565b818103818111156106af576106af61105a565b60018060a01b038416815282602082015260606040820152600061064860608301846110aa565b80820281158282048414176106af576106af61105a565b600181815b808511156112065781600019048211156111ec576111ec61105a565b808516156111f957918102915b93841c93908002906111d0565b509250929050565b60008261121d575060016106af565b8161122a575060006106af565b8160018114611240576002811461124a57611266565b60019150506106af565b60ff84111561125b5761125b61105a565b50506001821b6106af565b5060208310610133831016604e8410600b8410161715611289575081810a6106af565b61129383836111cb565b80600019048211156112a7576112a761105a565b029392505050565b60006106ac838361120e56fea26469706673582212207234f52e98af394d17c77e85ee0580b1719394e1586aa7a2d9ca1dd83a357be364736f6c63430008120033",
  "linkReferences": {},
  "deployedLinkReferences": {}
}