{
  "_format": "hh-sol-artifact-1",
  "contractName": "Payout",
  "sourceName": "contracts/Payout.sol",
  "abi": [
    {
      "inputs": [],
      "stateMutability": "nonpayable",
      "type": "constructor"
    },
    {
      "anonymous": false,
      "inputs": [
        {
          "indexed": true,
          "internalType": "bytes32",
          "name": "id",
          "type": "bytes32"
        }
      ],
      "name": "ChainlinkCancelled",
      "type": "event"
    },
    {
      "anonymous": false,
      "inputs": [
        {
          "indexed": true,
          "internalType": "bytes32",
          "name": "id",
          "type": "bytes32"
        }
      ],
      "name": "ChainlinkFulfilled",
      "type": "event"
    },
    {
      "anonymous": false,
      "inputs": [
        {
          "indexed": true,
          "internalType": "bytes32",
          "name": "id",
          "type": "bytes32"
        }
      ],
      "name": "ChainlinkRequested",
      "type": "event"
    },
    {
      "anonymous": false,
      "inputs": [
        {
          "indexed": true,
          "internalType": "address",
          "name": "from",
          "type": "address"
        },
        {
          "indexed": true,
          "internalType": "address",
          "name": "to",
          "type": "address"
        }
      ],
      "name": "OwnershipTransferRequested",
      "type": "event"
    },
    {
      "anonymous": false,
      "inputs": [
        {
          "indexed": true,
          "internalType": "address",
          "name": "from",
          "type": "address"
        },
        {
          "indexed": true,
          "internalType": "address",
          "name": "to",
          "type": "address"
        }
      ],
      "name": "OwnershipTransferred",
      "type": "event"
    },
    {
      "anonymous": false,
      "inputs": [
        {
          "indexed": true,
          "internalType": "bytes32",
          "name": "requestId",
          "type": "bytes32"
        },
        {
          "indexed": false,
          "internalType": "uint256",
          "name": "volume",
          "type": "uint256"
        }
      ],
      "name": "RequestVolume",
      "type": "event"
    },
    {
      "inputs": [],
      "name": "acceptOwnership",
      "outputs": [],
      "stateMutability": "nonpayable",
      "type": "function"
    },
    {
      "inputs": [
        {
          "internalType": "bytes32",
          "name": "_requestId",
          "type": "bytes32"
        },
        {
          "internalType": "uint256",
          "name": "_volume",
          "type": "uint256"
        }
      ],
      "name": "fulfill",
      "outputs": [],
      "stateMutability": "nonpayable",
      "type": "function"
    },
    {
      "inputs": [],
      "name": "ghtAddress",
      "outputs": [
        {
          "internalType": "address",
          "name": "",
          "type": "address"
        }
      ],
      "stateMutability": "view",
      "type": "function"
    },
    {
      "inputs": [],
      "name": "owner",
      "outputs": [
        {
          "internalType": "address",
          "name": "",
          "type": "address"
        }
      ],
      "stateMutability": "view",
      "type": "function"
    },
    {
      "inputs": [],
      "name": "requestVolumeData",
      "outputs": [
        {
          "internalType": "bytes32",
          "name": "requestId",
          "type": "bytes32"
        }
      ],
      "stateMutability": "nonpayable",
      "type": "function"
    },
    {
      "inputs": [
        {
          "internalType": "bytes32",
          "name": "",
          "type": "bytes32"
        }
      ],
      "name": "requests",
      "outputs": [
        {
          "internalType": "address",
          "name": "",
          "type": "address"
        }
      ],
      "stateMutability": "view",
      "type": "function"
    },
    {
      "inputs": [
        {
          "internalType": "address",
          "name": "_tokenAddress",
          "type": "address"
        }
      ],
      "name": "setAddress",
      "outputs": [],
      "stateMutability": "nonpayable",
      "type": "function"
    },
    {
      "inputs": [
        {
          "internalType": "address",
          "name": "to",
          "type": "address"
        }
      ],
      "name": "transferOwnership",
      "outputs": [],
      "stateMutability": "nonpayable",
      "type": "function"
    },
    {
      "inputs": [],
      "name": "volume",
      "outputs": [
        {
          "internalType": "uint256",
          "name": "",
          "type": "uint256"
        }
      ],
      "stateMutability": "view",
      "type": "function"
    },
    {
      "inputs": [],
      "name": "withdrawLink",
      "outputs": [],
      "stateMutability": "nonpayable",
      "type": "function"
    }
  ],
  "bytecode": "0x608060405260016004553480156200001657600080fd5b5033806000816200006e5760405162461bcd60e51b815260206004820152601860248201527f43616e6e6f7420736574206f776e657220746f207a65726f000000000000000060448201526064015b60405180910390fd5b600680546001600160a01b0319166001600160a01b0384811691909117909155811615620000a157620000a1816200013f565b505050620000c97384b9b910527ad5c03a9ca831909e21e236ea7b06620001eb60201b60201c565b600380546001600160a01b03191673cc79157eb46f5624204f47ab42b3906caa40eab71790557f6361393833363663633733313439353762386330313263373266303561656562600955600a6200012a670de0b6b3a764000060016200020d565b62000136919062000239565b600a556200025c565b336001600160a01b03821603620001995760405162461bcd60e51b815260206004820152601760248201527f43616e6e6f74207472616e7366657220746f2073656c66000000000000000000604482015260640162000065565b600780546001600160a01b0319166001600160a01b03838116918217909255600654604051919216907fed8889f560326eb138920d842192f0eb3dd22b4f139c87a2c57538e05bae127890600090a350565b600280546001600160a01b0319166001600160a01b0392909216919091179055565b80820281158282048414176200023357634e487b7160e01b600052601160045260246000fd5b92915050565b6000826200025757634e487b7160e01b600052601260045260246000fd5b500490565b611298806200026c6000396000f3fe608060405234801561001057600080fd5b506004361061009e5760003560e01c8063963074341161006657806396307434146101085780639d8669851461011b578063c618a1e414610144578063e30081a01461014d578063f2fde38b1461016057600080fd5b80634357855e146100a35780636021abac146100b857806379ba5097146100d35780638da5cb5b146100db5780638dc654a214610100575b600080fd5b6100b66100b1366004610f12565b610173565b005b6100c06102ff565b6040519081526020015b60405180910390f35b6100b6610424565b6006546001600160a01b03165b6040516001600160a01b0390911681526020016100ca565b6100b66104d2565b600b546100e8906001600160a01b031681565b6100e8610129366004610f34565b600c602052600090815260409020546001600160a01b031681565b6100c060085481565b6100b661015b366004610f4d565b610616565b6100b661016e366004610f4d565b610640565b60008281526005602052604090205482906001600160a01b031633146101f15760405162461bcd60e51b815260206004820152602860248201527f536f75726365206d75737420626520746865206f7261636c65206f6620746865604482015267081c995c5d595cdd60c21b60648201526084015b60405180910390fd5b60008181526005602052604080822080546001600160a01b03191690555182917f7cc135e0cebb02c3480ae5d74d377283180a2601f8f644edf7987b009316c63a91a2827f673b38182859a514d734bdfcb49d3a05c4a641dec9311d9894c9717bcb79af768360405161026691815260200190565b60405180910390a26008829055600b546000848152600c60205260409081902054905163a9059cbb60e01b81526001600160a01b0391821660048201526024810185905291169063a9059cbb906044016020604051808303816000875af11580156102d5573d6000803e3d6000fd5b505050506040513d601f19601f820116820180604052508101906102f99190610f7d565b50505050565b60008061031660095430634357855e60e01b610651565b90506103586040518060400160405280600381526020016219d95d60ea1b81525060405180608001604052806049815260200161121a60499139839190610676565b6103be604051806040016040528060048152602001630e0c2e8d60e31b8152506040518060400160405280601881526020017f5241572c4554482c5553442c564f4c554d453234484f55520000000000000000815250836106769092919063ffffffff16565b60408051808201909152600581526474696d657360d81b6020820152670de0b6b3a7640000906103f090839083610699565b60006103fe83600a546106b7565b6000818152600c6020526040902080546001600160a01b03191633179055949350505050565b6007546001600160a01b031633146104775760405162461bcd60e51b815260206004820152601660248201527526bab9ba10313290383937b837b9b2b21037bbb732b960511b60448201526064016101e8565b600680546001600160a01b0319808216339081179093556007805490911690556040516001600160a01b03909116919082907f8be0079c531659141344cd1fd0a4f28419497f9722a3daafe3b4186f6b6457e090600090a350565b6104da6106da565b60006104ee6002546001600160a01b031690565b6040516370a0823160e01b81523060048201529091506001600160a01b0382169063a9059cbb90339083906370a0823190602401602060405180830381865afa15801561053f573d6000803e3d6000fd5b505050506040513d601f19601f820116820180604052508101906105639190610f9f565b6040516001600160e01b031960e085901b1681526001600160a01b03909216600483015260248201526044016020604051808303816000875af11580156105ae573d6000803e3d6000fd5b505050506040513d601f19601f820116820180604052508101906105d29190610f7d565b6106135760405162461bcd60e51b81526020600482015260126024820152712ab730b13632903a37903a3930b739b332b960711b60448201526064016101e8565b50565b61061e6106da565b600b80546001600160a01b0319166001600160a01b0392909216919091179055565b6106486106da565b6106138161072f565b610659610ed7565b610661610ed7565b61066d818686866107d9565b95945050505050565b6080830151610685908361081f565b6080830151610694908261081f565b505050565b60808301516106a8908361081f565b60808301516106949082610836565b6003546000906106d1906001600160a01b0316848461089a565b90505b92915050565b6006546001600160a01b0316331461072d5760405162461bcd60e51b815260206004820152601660248201527527b7363c9031b0b63630b1363290313c9037bbb732b960511b60448201526064016101e8565b565b336001600160a01b038216036107875760405162461bcd60e51b815260206004820152601760248201527f43616e6e6f74207472616e7366657220746f2073656c6600000000000000000060448201526064016101e8565b600780546001600160a01b0319166001600160a01b03838116918217909255600654604051919216907fed8889f560326eb138920d842192f0eb3dd22b4f139c87a2c57538e05bae127890600090a350565b6107e1610ed7565b6107f1856080015161010061092d565b50508284526001600160a01b03821660208501526001600160e01b031981166040850152835b949350505050565b61082c8260038351610992565b6106948282610aa1565b67ffffffffffffffff19811215610855576108518282610ac8565b5050565b67ffffffffffffffff81131561086f576108518282610b0a565b600081126108835761085182600083610992565b61085182600161089584600019610fce565b610992565b6004546000906108ab816001610ff5565b600455835160408086015160808701515191516000936320214ca360e11b936108e39386938493923092918a9160019160240161104e565b60408051601f198184030181529190526020810180516001600160e01b03166001600160e01b031990931692909217909152905061092386838684610b2d565b9695505050505050565b60408051808201909152606081526000602082015261094d6020836110b6565b156109755761095d6020836110b6565b6109689060206110d8565b6109729083610ff5565b91505b506020828101829052604080518085526000815290920101905290565b60178167ffffffffffffffff16116109b7576102f98360e0600585901b168317610c8b565b60ff8167ffffffffffffffff16116109f5576109de836018611fe0600586901b1617610c8b565b506102f98367ffffffffffffffff83166001610cb0565b61ffff8167ffffffffffffffff1611610a3457610a1d836019611fe0600586901b1617610c8b565b506102f98367ffffffffffffffff83166002610cb0565b63ffffffff8167ffffffffffffffff1611610a7557610a5e83601a611fe0600586901b1617610c8b565b506102f98367ffffffffffffffff83166004610cb0565b610a8a83601b611fe0600586901b1617610c8b565b506102f98367ffffffffffffffff83166008610cb0565b6040805180820190915260608152600060208201526106d183846000015151848551610cd6565b610ad38260c3610c8b565b5061085182610ae483600019610fce565b604051602001610af691815260200190565b604051602081830303815290604052610dc0565b610b158260c2610c8b565b506108518282604051602001610af691815260200190565b6040516bffffffffffffffffffffffff193060601b1660208201526034810184905260009060540160408051808303601f1901815282825280516020918201206000818152600590925291812080546001600160a01b0319166001600160a01b038a1617905590925082917fb5e6e01e79f91267dc17b4e6314d5d4d03593d2ceee0fbb452b750bd70ea5af99190a2600254604051630200057560e51b81526001600160a01b0390911690634000aea090610bf0908890879087906004016110eb565b6020604051808303816000875af1158015610c0f573d6000803e3d6000fd5b505050506040513d601f19601f82011682018060405250810190610c339190610f7d565b6108175760405162461bcd60e51b815260206004820152602360248201527f756e61626c6520746f207472616e73666572416e6443616c6c20746f206f7261604482015262636c6560e81b60648201526084016101e8565b6040805180820190915260608152600060208201526106d18384600001515184610dcd565b604080518082019091526060815260006020820152610817848560000151518585610e28565b6040805180820190915260608152600060208201528251821115610cf957600080fd5b6020850151610d088386610ff5565b1115610d3b57610d3b85610d2b87602001518786610d269190610ff5565b610ea9565b610d36906002611112565b610ec0565b600080865180518760208301019350808887011115610d5a5787860182525b505050602084015b60208410610d9a5780518252610d79602083610ff5565b9150610d86602082610ff5565b9050610d936020856110d8565b9350610d62565b51815160001960208690036101000a019081169019919091161790525083949350505050565b61082c8260028351610992565b60408051808201909152606081526000602082015283602001518310610e0257610e028485602001516002610d369190611112565b8351805160208583010184815350808503610e1e576001810182525b5093949350505050565b6040805180820190915260608152600060208201526020850151610e4c8584610ff5565b1115610e6057610e6085610d2b8685610ff5565b60006001610e708461010061120d565b610e7a91906110d8565b9050855183868201018583198251161781525080518487011115610e9e5783860181525b509495945050505050565b600081831115610eba5750816106d4565b50919050565b8151610ecc838361092d565b506102f98382610aa1565b6040805160a0810182526000808252602080830182905282840182905260608084018390528451808601909552845283015290608082015290565b60008060408385031215610f2557600080fd5b50508035926020909101359150565b600060208284031215610f4657600080fd5b5035919050565b600060208284031215610f5f57600080fd5b81356001600160a01b0381168114610f7657600080fd5b9392505050565b600060208284031215610f8f57600080fd5b81518015158114610f7657600080fd5b600060208284031215610fb157600080fd5b5051919050565b634e487b7160e01b600052601160045260246000fd5b8181036000831280158383131683831282161715610fee57610fee610fb8565b5092915050565b808201808211156106d4576106d4610fb8565b6000815180845260005b8181101561102e57602081850181015186830182015201611012565b506000602082860101526020601f19601f83011685010191505092915050565b6001600160a01b0389811682526020820189905260408201889052861660608201526001600160e01b03198516608082015260a0810184905260c0810183905261010060e082018190526000906110a783820185611008565b9b9a5050505050505050505050565b6000826110d357634e487b7160e01b600052601260045260246000fd5b500690565b818103818111156106d4576106d4610fb8565b60018060a01b038416815282602082015260606040820152600061066d6060830184611008565b80820281158282048414176106d4576106d4610fb8565b600181815b8085111561116457816000190482111561114a5761114a610fb8565b8085161561115757918102915b93841c939080029061112e565b509250929050565b60008261117b575060016106d4565b81611188575060006106d4565b816001811461119e57600281146111a8576111c4565b60019150506106d4565b60ff8411156111b9576111b9610fb8565b50506001821b6106d4565b5060208310610133831016604e8410600b84101617156111e7575081810a6106d4565b6111f18383611129565b806000190482111561120557611205610fb8565b029392505050565b60006106d1838361116c56fe68747470733a2f2f6d696e2d6170692e63727970746f636f6d706172652e636f6d2f646174612f70726963656d756c746966756c6c3f6673796d733d455448267473796d733d555344a26469706673582212207823c18cb2817935412a1261368c46e9c1ee7eb68376e96e7f178c1187d30c5564736f6c63430008120033",
  "linkReferences": {},
  "deployedLinkReferences": {}
}