{"contracts/GamerhubManager.sol":{"GamerhubManager":{"abi":[{"inputs":[],"stateMutability":"nonpayable","type":"constructor"},{"anonymous":false,"inputs":[{"indexed":true,"internalType":"address","name":"user","type":"address"},{"indexed":false,"internalType":"uint256","name":"package","type":"uint256"},{"indexed":false,"internalType":"uint256","name":"start","type":"uint256"},{"indexed":false,"internalType":"uint256","name":"end","type":"uint256"}],"name":"subscribed","type":"event"},{"anonymous":false,"inputs":[{"indexed":false,"internalType":"address","name":"user","type":"address"},{"indexed":false,"internalType":"uint256","name":"amount","type":"uint256"}],"name":"withdrawal","type":"event"},{"inputs":[],"name":"balance","outputs":[{"internalType":"uint256","name":"","type":"uint256"}],"stateMutability":"view","type":"function"},{"inputs":[{"internalType":"uint256","name":"_package","type":"uint256"}],"name":"getPackage","outputs":[{"internalType":"uint256","name":"duration","type":"uint256"},{"internalType":"uint256","name":"amount","type":"uint256"}],"stateMutability":"view","type":"function"},{"inputs":[],"name":"owner","outputs":[{"internalType":"address","name":"","type":"address"}],"stateMutability":"view","type":"function"},{"inputs":[{"internalType":"uint256","name":"","type":"uint256"}],"name":"packages","outputs":[{"internalType":"uint256","name":"package","type":"uint256"},{"internalType":"uint256","name":"duration","type":"uint256"},{"internalType":"uint256","name":"amount","type":"uint256"}],"stateMutability":"view","type":"function"},{"inputs":[{"internalType":"uint256","name":"_package","type":"uint256"},{"internalType":"uint256","name":"_duration","type":"uint256"},{"internalType":"uint256","name":"_amount","type":"uint256"}],"name":"setPackage","outputs":[],"stateMutability":"nonpayable","type":"function"},{"inputs":[{"internalType":"uint256","name":"_package","type":"uint256"},{"internalType":"uint256","name":"_start","type":"uint256"}],"name":"subscribe","outputs":[],"stateMutability":"payable","type":"function"},{"inputs":[{"internalType":"address","name":"","type":"address"}],"name":"subscriptions","outputs":[{"internalType":"uint256","name":"package","type":"uint256"},{"internalType":"uint256","name":"start","type":"uint256"},{"internalType":"uint256","name":"end","type":"uint256"}],"stateMutability":"view","type":"function"},{"inputs":[{"internalType":"uint256","name":"_amount","type":"uint256"}],"name":"withdraw","outputs":[],"stateMutability":"nonpayable","type":"function"}],"evm":{"bytecode":{"linkReferences":{},"object":"608060405234801561001057600080fd5b50600080546001600160a01b031916331790556106be806100326000396000f3fe60806040526004361061007b5760003560e01c8063b69ef8a81161004e578063b69ef8a814610112578063b99dfe1814610136578063c216212a14610183578063f046395a146101d957600080fd5b80632e1a7d4d1461008057806382447134146100a257806384370813146100c25780638da5cb5b146100d5575b600080fd5b34801561008c57600080fd5b506100a061009b3660046105af565b610215565b005b3480156100ae57600080fd5b506100a06100bd3660046105c8565b610395565b6100a06100d03660046105f4565b61045d565b3480156100e157600080fd5b506000546100f5906001600160a01b031681565b6040516001600160a01b0390911681526020015b60405180910390f35b34801561011e57600080fd5b5061012860015481565b604051908152602001610109565b34801561014257600080fd5b5061016e6101513660046105af565b600090815260026020819052604090912060018101549101549091565b60408051928352602083019190915201610109565b34801561018f57600080fd5b506101be61019e3660046105af565b600260208190526000918252604090912080546001820154919092015483565b60408051938452602084019290925290820152606001610109565b3480156101e557600080fd5b506101be6101f4366004610616565b60036020526000908152604090208054600182015460029092015490919083565b6000546001600160a01b031633146102645760405162461bcd60e51b815260206004820152600d60248201526c1058d8d95cdcc819195b9a5959609a1b60448201526064015b60405180910390fd5b478111156102b45760405162461bcd60e51b815260206004820152601960248201527f5769746864726177616c206c696d697420657863656564656400000000000000604482015260640161025b565b80600160008282546102c6919061065c565b9091555050604051600090339083908381818185875af1925050503d806000811461030d576040519150601f19603f3d011682016040523d82523d6000602084013e610312565b606091505b50509050806103585760405162461bcd60e51b81526020600482015260126024820152712330b4b632b2103a379039b2b7321021272160711b604482015260640161025b565b60408051338152602081018490527f5a6b26bafd3957bf06ea3b4915f51221953ed272573c779820e6e39df3e646cf910160405180910390a15050565b6000546001600160a01b031633146103df5760405162461bcd60e51b815260206004820152600d60248201526c1058d8d95cdcc819195b9a5959609a1b604482015260640161025b565b600082116104225760405162461bcd60e51b815260206004820152601060248201526f24b73b30b634b210323ab930ba34b7b760811b604482015260640161025b565b604080516060810182528481526020808201948552818301938452600095865260029081905291909420935184559151600184015551910155565b6000828152600260208190526040909120015434146104b45760405162461bcd60e51b8152602060048201526013602482015272125b9d985b1a5908185b5bdd5b9d081c185a59606a1b604482015260640161025b565b600081116104f95760405162461bcd60e51b8152602060048201526012602482015271496e76616c6964207374617274206461746560701b604482015260640161025b565b346001600082825461050b9190610675565b909155505060008281526002602052604081206001015461052c9083610675565b60408051606080820183528682526020808301878152838501868152336000818152600385528790209551865591516001860155516002909401939093558351888152908101879052928301849052929350917ff627a3eaadc6c9d2386af4796a2aa425166c96a3e7685fa709d9608f2abab1eb910160405180910390a2505050565b6000602082840312156105c157600080fd5b5035919050565b6000806000606084860312156105dd57600080fd5b505081359360208301359350604090920135919050565b6000806040838503121561060757600080fd5b50508035926020909101359150565b60006020828403121561062857600080fd5b81356001600160a01b038116811461063f57600080fd5b9392505050565b634e487b7160e01b600052601160045260246000fd5b8181038181111561066f5761066f610646565b92915050565b8082018082111561066f5761066f61064656fea2646970667358221220175dbc8a07c999f0a4a470597c4e0926f63df018165618a6fb1c7e541b838a0764736f6c63430008120033","opcodes":"PUSH1 0x80 PUSH1 0x40 MSTORE CALLVALUE DUP1 ISZERO PUSH2 0x10 JUMPI PUSH1 0x0 DUP1 REVERT JUMPDEST POP PUSH1 0x0 DUP1 SLOAD PUSH1 0x1 PUSH1 0x1 PUSH1 0xA0 SHL SUB NOT AND CALLER OR SWAP1 SSTORE PUSH2 0x6BE DUP1 PUSH2 0x32 PUSH1 0x0 CODECOPY PUSH1 0x0 RETURN INVALID PUSH1 0x80 PUSH1 0x40 MSTORE PUSH1 0x4 CALLDATASIZE LT PUSH2 0x7B JUMPI PUSH1 0x0 CALLDATALOAD PUSH1 0xE0 SHR DUP1 PUSH4 0xB69EF8A8 GT PUSH2 0x4E JUMPI DUP1 PUSH4 0xB69EF8A8 EQ PUSH2 0x112 JUMPI DUP1 PUSH4 0xB99DFE18 EQ PUSH2 0x136 JUMPI DUP1 PUSH4 0xC216212A EQ PUSH2 0x183 JUMPI DUP1 PUSH4 0xF046395A EQ PUSH2 0x1D9 JUMPI PUSH1 0x0 DUP1 REVERT JUMPDEST DUP1 PUSH4 0x2E1A7D4D EQ PUSH2 0x80 JUMPI DUP1 PUSH4 0x82447134 EQ PUSH2 0xA2 JUMPI DUP1 PUSH4 0x84370813 EQ PUSH2 0xC2 JUMPI DUP1 PUSH4 0x8DA5CB5B EQ PUSH2 0xD5 JUMPI JUMPDEST PUSH1 0x0 DUP1 REVERT JUMPDEST CALLVALUE DUP1 ISZERO PUSH2 0x8C JUMPI PUSH1 0x0 DUP1 REVERT JUMPDEST POP PUSH2 0xA0 PUSH2 0x9B CALLDATASIZE PUSH1 0x4 PUSH2 0x5AF JUMP JUMPDEST PUSH2 0x215 JUMP JUMPDEST STOP JUMPDEST CALLVALUE DUP1 ISZERO PUSH2 0xAE JUMPI PUSH1 0x0 DUP1 REVERT JUMPDEST POP PUSH2 0xA0 PUSH2 0xBD CALLDATASIZE PUSH1 0x4 PUSH2 0x5C8 JUMP JUMPDEST PUSH2 0x395 JUMP JUMPDEST PUSH2 0xA0 PUSH2 0xD0 CALLDATASIZE PUSH1 0x4 PUSH2 0x5F4 JUMP JUMPDEST PUSH2 0x45D JUMP JUMPDEST CALLVALUE DUP1 ISZERO PUSH2 0xE1 JUMPI PUSH1 0x0 DUP1 REVERT JUMPDEST POP PUSH1 0x0 SLOAD PUSH2 0xF5 SWAP1 PUSH1 0x1 PUSH1 0x1 PUSH1 0xA0 SHL SUB AND DUP2 JUMP JUMPDEST PUSH1 0x40 MLOAD PUSH1 0x1 PUSH1 0x1 PUSH1 0xA0 SHL SUB SWAP1 SWAP2 AND DUP2 MSTORE PUSH1 0x20 ADD JUMPDEST PUSH1 0x40 MLOAD DUP1 SWAP2 SUB SWAP1 RETURN JUMPDEST CALLVALUE DUP1 ISZERO PUSH2 0x11E JUMPI PUSH1 0x0 DUP1 REVERT JUMPDEST POP PUSH2 0x128 PUSH1 0x1 SLOAD DUP2 JUMP JUMPDEST PUSH1 0x40 MLOAD SWAP1 DUP2 MSTORE PUSH1 0x20 ADD PUSH2 0x109 JUMP JUMPDEST CALLVALUE DUP1 ISZERO PUSH2 0x142 JUMPI PUSH1 0x0 DUP1 REVERT JUMPDEST POP PUSH2 0x16E PUSH2 0x151 CALLDATASIZE PUSH1 0x4 PUSH2 0x5AF JUMP JUMPDEST PUSH1 0x0 SWAP1 DUP2 MSTORE PUSH1 0x2 PUSH1 0x20 DUP2 SWAP1 MSTORE PUSH1 0x40 SWAP1 SWAP2 KECCAK256 PUSH1 0x1 DUP2 ADD SLOAD SWAP2 ADD SLOAD SWAP1 SWAP2 JUMP JUMPDEST PUSH1 0x40 DUP1 MLOAD SWAP3 DUP4 MSTORE PUSH1 0x20 DUP4 ADD SWAP2 SWAP1 SWAP2 MSTORE ADD PUSH2 0x109 JUMP JUMPDEST CALLVALUE DUP1 ISZERO PUSH2 0x18F JUMPI PUSH1 0x0 DUP1 REVERT JUMPDEST POP PUSH2 0x1BE PUSH2 0x19E CALLDATASIZE PUSH1 0x4 PUSH2 0x5AF JUMP JUMPDEST PUSH1 0x2 PUSH1 0x20 DUP2 SWAP1 MSTORE PUSH1 0x0 SWAP2 DUP3 MSTORE PUSH1 0x40 SWAP1 SWAP2 KECCAK256 DUP1 SLOAD PUSH1 0x1 DUP3 ADD SLOAD SWAP2 SWAP1 SWAP3 ADD SLOAD DUP4 JUMP JUMPDEST PUSH1 0x40 DUP1 MLOAD SWAP4 DUP5 MSTORE PUSH1 0x20 DUP5 ADD SWAP3 SWAP1 SWAP3 MSTORE SWAP1 DUP3 ADD MSTORE PUSH1 0x60 ADD PUSH2 0x109 JUMP JUMPDEST CALLVALUE DUP1 ISZERO PUSH2 0x1E5 JUMPI PUSH1 0x0 DUP1 REVERT JUMPDEST POP PUSH2 0x1BE PUSH2 0x1F4 CALLDATASIZE PUSH1 0x4 PUSH2 0x616 JUMP JUMPDEST PUSH1 0x3 PUSH1 0x20 MSTORE PUSH1 0x0 SWAP1 DUP2 MSTORE PUSH1 0x40 SWAP1 KECCAK256 DUP1 SLOAD PUSH1 0x1 DUP3 ADD SLOAD PUSH1 0x2 SWAP1 SWAP3 ADD SLOAD SWAP1 SWAP2 SWAP1 DUP4 JUMP JUMPDEST PUSH1 0x0 SLOAD PUSH1 0x1 PUSH1 0x1 PUSH1 0xA0 SHL SUB AND CALLER EQ PUSH2 0x264 JUMPI PUSH1 0x40 MLOAD PUSH3 0x461BCD PUSH1 0xE5 SHL DUP2 MSTORE PUSH1 0x20 PUSH1 0x4 DUP3 ADD MSTORE PUSH1 0xD PUSH1 0x24 DUP3 ADD MSTORE PUSH13 0x1058D8D95CDCC819195B9A5959 PUSH1 0x9A SHL PUSH1 0x44 DUP3 ADD MSTORE PUSH1 0x64 ADD JUMPDEST PUSH1 0x40 MLOAD DUP1 SWAP2 SUB SWAP1 REVERT JUMPDEST SELFBALANCE DUP2 GT ISZERO PUSH2 0x2B4 JUMPI PUSH1 0x40 MLOAD PUSH3 0x461BCD PUSH1 0xE5 SHL DUP2 MSTORE PUSH1 0x20 PUSH1 0x4 DUP3 ADD MSTORE PUSH1 0x19 PUSH1 0x24 DUP3 ADD MSTORE PUSH32 0x5769746864726177616C206C696D697420657863656564656400000000000000 PUSH1 0x44 DUP3 ADD MSTORE PUSH1 0x64 ADD PUSH2 0x25B JUMP JUMPDEST DUP1 PUSH1 0x1 PUSH1 0x0 DUP3 DUP3 SLOAD PUSH2 0x2C6 SWAP2 SWAP1 PUSH2 0x65C JUMP JUMPDEST SWAP1 SWAP2 SSTORE POP POP PUSH1 0x40 MLOAD PUSH1 0x0 SWAP1 CALLER SWAP1 DUP4 SWAP1 DUP4 DUP2 DUP2 DUP2 DUP6 DUP8 GAS CALL SWAP3 POP POP POP RETURNDATASIZE DUP1 PUSH1 0x0 DUP2 EQ PUSH2 0x30D JUMPI PUSH1 0x40 MLOAD SWAP2 POP PUSH1 0x1F NOT PUSH1 0x3F RETURNDATASIZE ADD AND DUP3 ADD PUSH1 0x40 MSTORE RETURNDATASIZE DUP3 MSTORE RETURNDATASIZE PUSH1 0x0 PUSH1 0x20 DUP5 ADD RETURNDATACOPY PUSH2 0x312 JUMP JUMPDEST PUSH1 0x60 SWAP2 POP JUMPDEST POP POP SWAP1 POP DUP1 PUSH2 0x358 JUMPI PUSH1 0x40 MLOAD PUSH3 0x461BCD PUSH1 0xE5 SHL DUP2 MSTORE PUSH1 0x20 PUSH1 0x4 DUP3 ADD MSTORE PUSH1 0x12 PUSH1 0x24 DUP3 ADD MSTORE PUSH18 0x2330B4B632B2103A379039B2B73210212721 PUSH1 0x71 SHL PUSH1 0x44 DUP3 ADD MSTORE PUSH1 0x64 ADD PUSH2 0x25B JUMP JUMPDEST PUSH1 0x40 DUP1 MLOAD CALLER DUP2 MSTORE PUSH1 0x20 DUP2 ADD DUP5 SWAP1 MSTORE PUSH32 0x5A6B26BAFD3957BF06EA3B4915F51221953ED272573C779820E6E39DF3E646CF SWAP2 ADD PUSH1 0x40 MLOAD DUP1 SWAP2 SUB SWAP1 LOG1 POP POP JUMP JUMPDEST PUSH1 0x0 SLOAD PUSH1 0x1 PUSH1 0x1 PUSH1 0xA0 SHL SUB AND CALLER EQ PUSH2 0x3DF JUMPI PUSH1 0x40 MLOAD PUSH3 0x461BCD PUSH1 0xE5 SHL DUP2 MSTORE PUSH1 0x20 PUSH1 0x4 DUP3 ADD MSTORE PUSH1 0xD PUSH1 0x24 DUP3 ADD MSTORE PUSH13 0x1058D8D95CDCC819195B9A5959 PUSH1 0x9A SHL PUSH1 0x44 DUP3 ADD MSTORE PUSH1 0x64 ADD PUSH2 0x25B JUMP JUMPDEST PUSH1 0x0 DUP3 GT PUSH2 0x422 JUMPI PUSH1 0x40 MLOAD PUSH3 0x461BCD PUSH1 0xE5 SHL DUP2 MSTORE PUSH1 0x20 PUSH1 0x4 DUP3 ADD MSTORE PUSH1 0x10 PUSH1 0x24 DUP3 ADD MSTORE PUSH16 0x24B73B30B634B210323AB930BA34B7B7 PUSH1 0x81 SHL PUSH1 0x44 DUP3 ADD MSTORE PUSH1 0x64 ADD PUSH2 0x25B JUMP JUMPDEST PUSH1 0x40 DUP1 MLOAD PUSH1 0x60 DUP2 ADD DUP3 MSTORE DUP5 DUP2 MSTORE PUSH1 0x20 DUP1 DUP3 ADD SWAP5 DUP6 MSTORE DUP2 DUP4 ADD SWAP4 DUP5 MSTORE PUSH1 0x0 SWAP6 DUP7 MSTORE PUSH1 0x2 SWAP1 DUP2 SWAP1 MSTORE SWAP2 SWAP1 SWAP5 KECCAK256 SWAP4 MLOAD DUP5 SSTORE SWAP2 MLOAD PUSH1 0x1 DUP5 ADD SSTORE MLOAD SWAP2 ADD SSTORE JUMP JUMPDEST PUSH1 0x0 DUP3 DUP2 MSTORE PUSH1 0x2 PUSH1 0x20 DUP2 SWAP1 MSTORE PUSH1 0x40 SWAP1 SWAP2 KECCAK256 ADD SLOAD CALLVALUE EQ PUSH2 0x4B4 JUMPI PUSH1 0x40 MLOAD PUSH3 0x461BCD PUSH1 0xE5 SHL DUP2 MSTORE PUSH1 0x20 PUSH1 0x4 DUP3 ADD MSTORE PUSH1 0x13 PUSH1 0x24 DUP3 ADD MSTORE PUSH19 0x125B9D985B1A5908185B5BDD5B9D081C185A59 PUSH1 0x6A SHL PUSH1 0x44 DUP3 ADD MSTORE PUSH1 0x64 ADD PUSH2 0x25B JUMP JUMPDEST PUSH1 0x0 DUP2 GT PUSH2 0x4F9 JUMPI PUSH1 0x40 MLOAD PUSH3 0x461BCD PUSH1 0xE5 SHL DUP2 MSTORE PUSH1 0x20 PUSH1 0x4 DUP3 ADD MSTORE PUSH1 0x12 PUSH1 0x24 DUP3 ADD MSTORE PUSH18 0x496E76616C69642073746172742064617465 PUSH1 0x70 SHL PUSH1 0x44 DUP3 ADD MSTORE PUSH1 0x64 ADD PUSH2 0x25B JUMP JUMPDEST CALLVALUE PUSH1 0x1 PUSH1 0x0 DUP3 DUP3 SLOAD PUSH2 0x50B SWAP2 SWAP1 PUSH2 0x675 JUMP JUMPDEST SWAP1 SWAP2 SSTORE POP POP PUSH1 0x0 DUP3 DUP2 MSTORE PUSH1 0x2 PUSH1 0x20 MSTORE PUSH1 0x40 DUP2 KECCAK256 PUSH1 0x1 ADD SLOAD PUSH2 0x52C SWAP1 DUP4 PUSH2 0x675 JUMP JUMPDEST PUSH1 0x40 DUP1 MLOAD PUSH1 0x60 DUP1 DUP3 ADD DUP4 MSTORE DUP7 DUP3 MSTORE PUSH1 0x20 DUP1 DUP4 ADD DUP8 DUP2 MSTORE DUP4 DUP6 ADD DUP7 DUP2 MSTORE CALLER PUSH1 0x0 DUP2 DUP2 MSTORE PUSH1 0x3 DUP6 MSTORE DUP8 SWAP1 KECCAK256 SWAP6 MLOAD DUP7 SSTORE SWAP2 MLOAD PUSH1 0x1 DUP7 ADD SSTORE MLOAD PUSH1 0x2 SWAP1 SWAP5 ADD SWAP4 SWAP1 SWAP4 SSTORE DUP4 MLOAD DUP9 DUP2 MSTORE SWAP1 DUP2 ADD DUP8 SWAP1 MSTORE SWAP3 DUP4 ADD DUP5 SWAP1 MSTORE SWAP3 SWAP4 POP SWAP2 PUSH32 0xF627A3EAADC6C9D2386AF4796A2AA425166C96A3E7685FA709D9608F2ABAB1EB SWAP2 ADD PUSH1 0x40 MLOAD DUP1 SWAP2 SUB SWAP1 LOG2 POP POP POP JUMP JUMPDEST PUSH1 0x0 PUSH1 0x20 DUP3 DUP5 SUB SLT ISZERO PUSH2 0x5C1 JUMPI PUSH1 0x0 DUP1 REVERT JUMPDEST POP CALLDATALOAD SWAP2 SWAP1 POP JUMP JUMPDEST PUSH1 0x0 DUP1 PUSH1 0x0 PUSH1 0x60 DUP5 DUP7 SUB SLT ISZERO PUSH2 0x5DD JUMPI PUSH1 0x0 DUP1 REVERT JUMPDEST POP POP DUP2 CALLDATALOAD SWAP4 PUSH1 0x20 DUP4 ADD CALLDATALOAD SWAP4 POP PUSH1 0x40 SWAP1 SWAP3 ADD CALLDATALOAD SWAP2 SWAP1 POP JUMP JUMPDEST PUSH1 0x0 DUP1 PUSH1 0x40 DUP4 DUP6 SUB SLT ISZERO PUSH2 0x607 JUMPI PUSH1 0x0 DUP1 REVERT JUMPDEST POP POP DUP1 CALLDATALOAD SWAP3 PUSH1 0x20 SWAP1 SWAP2 ADD CALLDATALOAD SWAP2 POP JUMP JUMPDEST PUSH1 0x0 PUSH1 0x20 DUP3 DUP5 SUB SLT ISZERO PUSH2 0x628 JUMPI PUSH1 0x0 DUP1 REVERT JUMPDEST DUP2 CALLDATALOAD PUSH1 0x1 PUSH1 0x1 PUSH1 0xA0 SHL SUB DUP2 AND DUP2 EQ PUSH2 0x63F JUMPI PUSH1 0x0 DUP1 REVERT JUMPDEST SWAP4 SWAP3 POP POP POP JUMP JUMPDEST PUSH4 0x4E487B71 PUSH1 0xE0 SHL PUSH1 0x0 MSTORE PUSH1 0x11 PUSH1 0x4 MSTORE PUSH1 0x24 PUSH1 0x0 REVERT JUMPDEST DUP2 DUP2 SUB DUP2 DUP2 GT ISZERO PUSH2 0x66F JUMPI PUSH2 0x66F PUSH2 0x646 JUMP JUMPDEST SWAP3 SWAP2 POP POP JUMP JUMPDEST DUP1 DUP3 ADD DUP1 DUP3 GT ISZERO PUSH2 0x66F JUMPI PUSH2 0x66F PUSH2 0x646 JUMP INVALID LOG2 PUSH5 0x6970667358 0x22 SLT KECCAK256 OR 0x5D 0xBC DUP11 SMOD 0xC9 SWAP10 CREATE LOG4 LOG4 PUSH17 0x597C4E0926F63DF018165618A6FB1C7E54 SHL DUP4 DUP11 SMOD PUSH5 0x736F6C6343 STOP ADDMOD SLT STOP CALLER "},"methodIdentifiers":{"balance()":"b69ef8a8","getPackage(uint256)":"b99dfe18","owner()":"8da5cb5b","packages(uint256)":"c216212a","setPackage(uint256,uint256,uint256)":"82447134","subscribe(uint256,uint256)":"84370813","subscriptions(address)":"f046395a","withdraw(uint256)":"2e1a7d4d"}}}}}